:020000040800F2
:10000000C8060020D5000008451800083D15000866
:1000100000000000000000000000000000000000E0
:100020000000000000000000000000004918000867
:100030000000000000000000471800084B180008EE
:10004000E7000008E7000008E7000008E7000008F4
:10005000E7000008E7000008E7000008E7000008E4
:10006000E7000008E7000008E7000008E7000008D4
:10007000E7000008E7000008E7000008E7000008C4
:10008000E7000008E7000008E7000008E7000008B4
:10009000E7000008E7000008E7000008E7000008A4
:1000A000E7000008E7000008E7000008E700000894
:1000B000E7000008E7000008E7000008E700000884
:1000C0000348854600F08EF800480047351F0008B9
:1000D000C80600200448804704480047FEE7FEE7C2
:1000E000FEE7FEE7FEE7FEE7B3180008C1000008E0
:1000F00030B50B46014600202022012409E00D46C0
:10010000D5409D4205D31D469540491B2546954047
:1001100040191546521E002DF1DC30BDF0B51FB45C
:100120000646002082B005464024019100901BE065
:10013000019922460F46304600F020F8049A059BAC
:10014000801A994110D310461946224600F039F81A
:10015000361A8F410197224601200021009F00F0AE
:1001600030F838184D4100902046641E0028DFDC2E
:10017000019B00982946324607B0F0BD10B5202AF1
:1001800004DB0846203AD040002110BD0B46D34086
:10019000D0402024A21A91400843194610BDD2B283
:1001A00001E00270401C491EFBD270470022F6E7B6
:1001B00010B513460A4604461946FFF7F0FF2046DD
:1001C00010BD10B5202A04DB0146203A91400020E2
:1001D00010BD914020239C1A0346E34019439040F0
:1001E00010BD0000064C0125064E05E0E36807CC73
:1001F0002B430C3C98471034B442F7D3FFF764FF0D
:100200004C2000086C200008F8B500250446203476
:100210000095227D012A3BD00122227503689E6849
:10022000760776D43F4F4E68BE4254D09E6A0F7810
:10023000BA4016439E620123C26A1B079A421FD02E
:10024000012A1DD0022A1BD0032A19D0042A17D054
:10025000052A15D0062A13D0072A11D002688B6808
:1002600056697607760FB3420AD05369DB08DB0084
:100270005361006842690B7A5B075B0F1A43426166
:100280000868102806D0112804D0122802D045E0B2
:100290000220F8BD244A9368102809D011280AD0FA
:1002A00001200006034393600868102806D035E05B
:1002B0000120C005F6E701208005F3E71C481B4933
:1002C0000068FFF715FF0A21484300E0401E009038
:1002D0000028FBD122E0986A0E78B24090439862E1
:1002E0000868102803D0112801D0122816D10E4911
:1002F0008A68102807D0112808D001200006824300
:100300008A600BE005E00120C005F8E701208005C8
:10031000F5E7816B202211438163012500202075C0
:100320002846F8BD011000000027014040420F00A0
:100330000C000020F8B500260446002805D0A06B6C
:1003400025462035002802D007E00120F8BD002016
:10035000E0632875204600F0A9F8A06B1022C006C3
:10036000002870DB2068816849076CD4A16B1301F9
:10037000994302231943A16381688907890F0129E1
:1003800005D10168C9070FD1C16809040CD4C1683F
:1003900018239943A3681943C16020680169636801
:1003A00089008908194301612068C1683D4B1940E3
:1003B000C160207E617E8003C9030843A17E4B0398
:1003C0001843A36A012B02D001231B0300E0002382
:1003D0001843E36818432369022B09D0002318430C
:1003E0002B79E57E5B0018430123012D02D00AE042
:1003F0000423F4E7002927D0A16B20252943A1631A
:10040000E16B1943E163E1690D46FF3DC23D02D056
:10041000256A294308432168CD680543CD6001253D
:10042000E16A2D07A94213D0012911D002290FD06A
:1004300003290DD004290BD0052909D0062907D09E
:10044000072905D010E028E0012109040843DAE774
:1004500021684D69ED08ED004D6121684D69A78D5A
:100460007F077F0F3D434D612168C9680E4D2940CC
:10047000814207D10020E063A06B80088000401C0F
:10048000A06308E0A06B022188431043A063E06BE7
:100490001843E06301263046F8BDA06B1043A0630B
:1004A000F8E700001902FEFFE7FF3F8310B586B0B2
:1004B000044614216846FFF779FE104920688842F7
:1004C00019D10F48826941150A43826182690A4045
:1004D0000592426909020A43426140690840059059
:1004E000012000900320019000200290092069461D
:1004F000C00600F065F806B010BD00000024014001
:100500000010024070B54379012B13D001254571CD
:100510000223037106683468074B93409C430B68C1
:1005200049680B43934023433360057100214171B7
:10053000084670BD022070BDFE0F000070B50400BB
:1005400004D020790025002802D005E0012070BDEC
:100550006571204600F008F8022020712561012015
:100560002071002070BD000010B586B00446142133
:100570006846FFF71BFE10492068884219D10F48D2
:10058000C26941040A43C261C2690A4005924269D4
:1005900009130A4342614069084005901020009009
:1005A000032001900020029009206946C00600F057
:1005B00007F806B010BD00000074004000100240B3
:1005C000FCB500230124A6E027462A469F403A4076
:1005D00073D04D68012D05D0022D03D0112D01D00F
:1005E000122D16D185680326AC465D00AE46AE409E
:1005F0006546B543AC46CE687546AE4065462E436B
:10060000866046680D79BE43ED06ED0F9D4035438B
:100610004560C6685F000325BD40AE46AE43354623
:100620008E68BE402E43C6604E68022E01D0122E48
:1006300014D1DE08B60036180196366A5D07B44656
:10064000EE0E0F25B54000966646AE43B4460D69E2
:10065000009EB54066462E43019D2E620668754693
:10066000AE430D79AD07AD0FBD40354305604D6814
:10067000ED004FD52B4DAE692643AE61AD699E08A6
:10068000ED07ED0F0095284DB6007519AC46AD6825
:100690009E07360F0F27B740BD430927FF06B84214
:1006A00001D1002715E0214FB84201D1012710E008
:1006B0001F4FB84202D102270BE02BE01D4FB8427A
:1006C00001D1032705E01C4FB84201D1042700E007
:1006D0000527B7402F436546AF60184E35684F6811
:1006E0009543FF0300D51543356075684F68954302
:1006F000BF0300D515437560B5684F689543FF0289
:1007000000D51543B560F5684F689543BF0200D525
:100710001543F5605B1C0A681546DA4000D053E7C4
:10072000FCBD000000100240000001400004004831
:1007300000080048000C0048001000480004014078
:100740000069084000D001207047002A01D0816173
:100750007047816270470000014880687047000060
:100760000000002002488168027889188160704783
:100770000000002010B506480168102211430160F6
:10078000002000F007F800F027F8002010BD00005E
:100790000020024070B504460D4D7D202978C00030
:1007A000FFF7A6FC01460B480068FFF7A1FC00F02C
:1007B0002DFC002809D1042C07D200222146401E1E
:1007C00000F01EF800206C6070BD012070BD0000BC
:1007D000000000200C00002008B5084881690122B3
:1007E00011438161816911400091C26901040A438A
:1007F000C261C0690840009008BD000000100240BE
:1008000010B501F065FB10BDF8B504460068434D16
:10081000C00352D5E8690026C00007D4E96928045E
:100820000143E961E9690140012600913C48016802
:10083000C90510D40168821511430160FFF78CFFD0
:10084000074604E0FFF788FFC01B642824D834481B
:100850000068C005F6D5286A03273F02384020D03B
:100860006168394081421CD0286A2A6AB843012154
:1008700009040A432A622A6A8A432A622862C00754
:100880000FD0FFF769FF009008E0FFF765FF0099C0
:10089000411A2448814201D90320F8BD286A800703
:1008A000F3D5286A6168B84308432862002E04D053
:1008B000E869012109078843E8612078C00705D06D
:1008C000286BA1688008800008432863207880078F
:1008D00006D5286B032109048843E168084328638F
:1008E0002078800605D5286B1021884321690843AC
:1008F00028632068800305D5286B80218843A1697F
:10090000084328632088400505D5286B402188438B
:100910006169084328630020F8BD00000010024010
:100920000070004088130000F8B50F4606005FD045
:100930003D4D2868C007C00FB84209D2286840085A
:100940004000384328602868C007C00FB8424FD124
:100950003068364C81070CD5400704D56068072104
:100960000902084360606068F0218843B168084369
:1009700060603078C0072CD07068012810D0022841
:1009800011D0032812D021688907002930DA616864
:100990008908890001436160FFF7DEFE009011E0E5
:1009A00021688903F1E721688901EEE7616BC903DA
:1009B000EBE7FFF7D1FE0099411A1D48814201D9AA
:1009C0000320F8BD60680C210840716889008842E6
:1009D000EFD12868C007C00FB8420BD9286840087B
:1009E0004000384328602868C007C00FB84201D0D3
:1009F0000120F8BD3078400706D56068072109025C
:100A00008843F1680843606000F028F86168094A8B
:100A10000906090F515CC840074908600020FFF72C
:100A2000B9FE0020F8BD0000002002400010024086
:100A300088130000342000080C00002004480549F9
:100A400000684968044A4905490F515CC84070472D
:100A50000C000020001002404420000830B519A30B
:100A60000FCB89B06C460FC41AA30FCB0FC41D4A1D
:100A700051680C200B4603401B48042B05D01B4D2E
:100A8000082B04D00C2B00D1284609B030BD8B02B6
:100A90001B0F6C46E45CD26A04AB1207120FC90349
:100AA0009A5C890F022901D0032901D0002301E0BB
:100AB000002328460021FFF731FB214601F0F0F921
:100AC000E3E7000002030405060708090A0B0C0D02
:100AD0000E0F10100102030405060708090A0B0C8B
:100AE0000D0E0F100010024000127A00006CDC02A4
:100AF000FEB5040070D02078F94EFA4DC00748D0FA
:100B000068680007800F01281FD068680007800F01
:100B1000022804D16868C003800F022815D06168DC
:100B2000012919D001208004002901D0052917D0FE
:100B30002968B143296029688143296060680028D9
:100B40001BD0FFF709FE074613E02868800320D575
:100B500060680028CED01CE0286830432860EDE7AC
:100B6000296801432960F7E7FFF7F6FDC01B6428F9
:100B700070D828688003F7D50BE0FFF7EDFD074636
:100B800004E0FFF7E9FDC01B6428F1D82868800362
:100B9000F7D4207880073FD568680007800F14D00D
:100BA00068680007800F022804D16868C003800FBE
:100BB00001280AD0E068002828681ED001210843D7
:100BC0002860FFF7C9FD07460CE0286880070CD5B0
:100BD000E068012800D108E080E1FFF7BDFDC01BFF
:100BE0000228C5D828688007F7D52868F8218843E7
:100BF0002169C900084328600EE0400840002860D1
:100C0000FFF7AAFD074604E0FFF7A6FDC01B022878
:100C1000AED828688007F7D42078000723D5E0698C
:100C20000028686A0FD0012108436862FFF794FD2D
:100C3000074604E0FFF790FDC01B022898D8686AB9
:100C40008007F7D50FE0400840006862FFF784FD99
:100C5000074605E0C3E0FFF77FFDC01B022887D8E9
:100C6000686A8007F7D4207804274007002861DAF3
:100C700000200190E869C00008D4E969B806014382
:100C8000E961E969014001200091019096480168FD
:100C9000C90511D40168821511430160FFF75CFD9D
:100CA000009005E0FFF758FD0099401A642898D895
:100CB0008D480068C005F5D5A06801280AD0002835
:100CC00001D0052811D0286A400840002862286A0F
:100CD000B84302E0286A012108432862A06800287E
:100CE00012D0FFF739FD00900AE0286A38432862E5
:100CF000F0E7FFF731FD0099411A7C4881426ED838
:100D0000286A8007F5D50DE0FFF726FD009006E084
:100D1000FFF722FD0099411A744881425FD8286A82
:100D20008007F5D40198002804D0E9690120000764
:100D30008143E9612078C00635D5606901280CD06F
:100D4000401D686B24D038436863686B40084000DE
:100D50006863FFF701FD074622E0686B384368636C
:100D6000686B012108436863FFF7F6FC074604E05F
:100D7000FFF7F2FCC01B022831D8686B8007F7D55B
:100D8000686BF8218843A169C900084368630AE0D9
:100D9000B8436863F4E7FFF7DFFCC01B02281ED8E6
:100DA000686B8007F7D42078800637D5686800071D
:100DB000800F032814D068680007800F022804D130
:100DC0006868C003800F03280AD0206A0028686B77
:100DD00016D030436863FFF7BFFC06460CE062E0C4
:100DE000686BC0031AD5206A012877D116E0FFF797
:100DF000B3FC801B022856D8686BC003F7D50DE002
:100E0000B0436863FFF7A8FC064604E0FFF7A4FCC4
:100E1000801B022847D8686BC003F7D4606A00289B
:100E200066D069680907890F022942D00126360673
:100E30000228286805D0B0432860FFF78DFC0446DF
:100E400033E0B0432860FFF787FC074604E0FFF774
:100E500083FCC01B022826D828688001F7D4E86AE2
:100E6000216B000900010843E862A16AE06A0843B7
:100E700069687B22D2039143084368602868304345
:100E80002860FFF769FC044604E0FFF765FC001BDF
:100E9000022808D828688001F7D529E0FFF75CFC14
:100EA000001B022801D90320FEBD28688001F5D46B
:100EB0001EE00128F8D06868E96A0322D203A36A19
:100EC00002409A420AD10907226B090F914205D1CB
:100ED0000F2189040840E16A884209D00120FEBD43
:100EE0000000010000100240007000408813000064
:100EF0000020F4E7F8B5040007D000262546403569
:100F0000A662687F002802D005E00120F8BD2E7798
:100F1000204600F04BF802236B77206801684022DE
:100F2000914301600721E0680902884201D900224B
:100F300001E0012212030F273F02B84202D088428B
:100F400000D0A662276B002F05D1884201D9236308
:100F500001E001202063A16860686369084321699A
:100F6000194308430123A1695B0219400843E16961
:100F70000843216A0843A16A084321680860616B3D
:100F8000606AA36908431B0C0427E1683B401943CE
:100F900008432168104348602068C1697A02914380
:100FA000C1612666012068770020F8BD10B586B0C3
:100FB000044614216846FFF7F9F811492068884271
:100FC0001CD11048C26909140A43C261C2690A40AF
:100FD0000592426909010A4342614069084005904F
:100FE0000F200003009002200021019003200291B5
:100FF0000491039069460448FFF7E2FA06B010BD79
:10100000003800400010024000040048094910B5B3
:10101000401E884201D9012010BD074C60610321A8
:10102000081F00F055FF0020A0610720206100206C
:1010300010BD0000FFFFFF0000E000E030B50346F8
:1010400020331A7F012A26D001221A770325CA6885
:101050002D02AA438D6800242A430125AD02AA432C
:101060004D6800682A430125ED02AA430D682A4312
:1010700001252D03AA430D692A4301256D03AA43C7
:101080004D69C9692A430125AD03AA430A43426455
:101090001C77002030BD022030BD0000F0B50246B4
:1010A0002032137F012B21D001251577022353779E
:1010B00006687468B3687027BC430F68274377607D
:1010C00000680B4CA04208D0AC07A04205D0094CE8
:1010D000A04202D0084CA04204D180244968A34316
:1010E00019438160557700201077F0BD0220F0BDD4
:1010F000002C0140000400400040014070B5040095
:1011000005D025462035687F002802D006E0012062
:1011100070BD00202877204600F00AF8022068778A
:10112000211D206800F0C6FB01206877002070BDFB
:1011300008B50F4A01680F48914205D1C26981156F
:101140000A43C261C06906E00B4A914206D1826936
:101150000121490408E00840009008BD074A914277
:10116000FBD18269012189040A4382618069F2E727
:1011700000200040001002400044014000480140AF
:10118000F0B587B0044614216846FFF70FF82548EC
:1011900026680123002424495B040225864207D1E6
:1011A000486918434861486918400590C8141BE015
:1011B0000127BF073A131D48BE4221D14E6916438D
:1011C0004E614E69164005964A691A434A6149695B
:1011D00002941940059116490091019504950394D4
:1011E0006946FFF7EDF9F813009009200294019584
:1011F000694604950394C006FFF7E2F907B0F0BD15
:101200000C4B9E42FAD14B6913434B6149690294DE
:10121000114005913321009101210491019503941E
:101220006946E9E7002C0140001002400004004834
:10123000080C00000004004070B504462034237FF1
:10124000012B0CD00125257702236377002A08D0D3
:10125000042A0AD0082A0CD00C2A11D10DE0022051
:1012600070BD006800F07EFB0AE0006800F0BEFB85
:1012700006E0006800F0FAFB02E0006800F038FCCD
:1012800065770020207770BD70B5040005D0254635
:101290002035687F002802D006E0012070BD0020C4
:1012A0002877204600F00AF802206877211D206880
:1012B00000F000FB01206877002070BD7047F8B592
:1012C000064604462036307F0D4601280DD0012009
:1012D0003077022070770427002A08D0042A16D01D
:1012E000082A2AD00C2A4DD137E00220F8BD206808
:1012F00000F038FB20688169082211438161206871
:101300008169B9438161206881692A6912E0206896
:1013100000F06CFB206882690121C9020A438261E6
:10132000206881690122920291438161206881696C
:101330002A6912021143816124E0206800F096FBC3
:101340002068C26908210A43C2612068C169B943A3
:10135000C1612068C1692A6912E0206800F0C8FBF9
:101360002068C1690122D2021143C1612068C269AB
:10137000012189028A43C2612068C1692A69120277
:101380001143C1610120707700203077F8BD70B53E
:10139000040005D025462035687F002802D006E0ED
:1013A000012070BD00202877204600F00BF80220B5
:1013B0006877211D206800F07DFA01206877002001
:1013C00070BD000008B5104A01681048914205D16F
:1013D0008269C1140A438261806913E00122920785
:1013E000914207D1C16901221143C161C069104016
:1013F000009008BD064A9142FBD1C26902210A430E
:10140000C261C0690840F3E7002C014000100240AF
:101410000004004010B504460068012200F094FA70
:101420000E482168814208D00D48814205D00D4800
:10143000814202D00C48814204D1486C0122D2037F
:1014400010434864206881684907490F062903D082
:101450000168012211430160002010BD002C0140F1
:1014600000400140004401400048014010B5040024
:1014700003D0606F002802D007E0012010BD0021DA
:1014800070200155204600F027F82420606720686E
:101490000168490849000160204600F0F5FB012879
:1014A000ECD0606A002802D0204600F057FB20688C
:1014B00041680922D20291434160206881682A2252
:1014C0009143816020680168012211430160204638
:1014D00000F0AAFB10BD000010B586B00446142130
:1014E0006846FEF763FE1349206888421FD1124800
:1014F0008269012189030A43826182690A40059257
:101500004269C9000A4342614069084005900320CE
:1015100040020090022001900020029003200390DE
:101520000120049009206946C006FFF749F806B07B
:1015300010BD00000038014000100240FEE700002E
:101540003EB500241549164800940194029412C037
:10155000046004224460C260012181600474447408
:101560008474C474FF22C23284614261024618321C
:10157000147101620838FEF7DDFE012000030190BE
:1015800000040290009469460548FEF73DFE1220D3
:10159000009069460248FEF737FE3EBD0024014038
:1015A00010000020F0B587B014216846FEF7FEFD5C
:1015B00024484269012189050A43426142690A407F
:1015C0000592426949110A43426142690A40059203
:1015D000426949000A4342614069FF2408400927E3
:1015E000EF34FF060590002221463846FFF7ADF89C
:1015F000E126B600002231461348FFF7A6F8009412
:101600000024012501950294694638460394FEF7AB
:10161000D7FF029469460C48009601950394FEF7A3
:10162000CFFF28036A4631C269463846FEF7C8FF35
:10163000402000900194694602940348FEF7C0FFE1
:1016400007B0F0BD001002400004004810B50F487C
:101650000D490160FF2105314160002103228160B5
:1016600012020161C2600122416192048261016241
:1016700028224162C26181620722C262016308219D
:101680004163FFF737FC10BD0038004064000020C4
:1016900010B592B000240F941C2108A81094FEF7F6
:1016A00085FD20216846FEF781FD19481749016034
:1016B0002F21846041600461446116498461C160E6
:1016C000FFF765FE0F940FA911481094FFF7E6FC91
:1016D00060200D94099408900A940C940C2208A997
:1016E0000E940B48FFF7EBFD012000944003029499
:1016F0000590019403940494694607940448FFF705
:101700009DFC0348FFF73CFD12B010BD002C0140CA
:10171000C8000020E703000010B58AB00024079439
:101720001C2168460894FEF741FD012119488907EC
:1017300012C004608460611E046141600838FFF7D4
:1017400026FE1448FFF7A0FD079407A91148089446
:10175000FFF7A4FC602000900194029400226946E7
:1017600004940C48FFF7ABFD042269460948FFF7D3
:10177000A6FD082269460748FFF7A1FD0C2269462D
:1017800004480094FFF758FD0248FFF7F9FC0AB03F
:1017900010BD00000801002010B58AB00024079495
:1017A0001C2168460894FEF701FD1749174812C02E
:1017B000046084601649046141600838FFF7E7FD62
:1017C000079407A911480894FFF768FC602000906F
:1017D000019402940022694604940C48FFF76FFDBF
:1017E000042269460948FFF76AFD0822694607484E
:1017F000FFF765FD0C2269460448FFF760FD0348CA
:10180000FFF7BEFC0AB010BD0004004048010020F4
:10181000FFFF000010B50A48084901604B2149024A
:10182000416000218160C16001618161C1610C2260
:10183000016242614162FFF719FE10BD00380140AC
:101840004802002070477047704710B5FEF78AFFC6
:1018500010BD70B598B034216846FEF7A7FC00248F
:101860000D940E940F941C2111A81094FEF79EFC69
:101870000125112005950090019510200690000388
:101880000A90000102260B9009960C946846FFF717
:101890002FF907200D900F9401210E9610940DA89A
:1018A000FFF742F811A811951394FEF7ADFF18B099
:1018B00070BD7047F0B502681D4B0124A4071D4D93
:1018C000984203D0A04201D0A84203D17026B2436F
:1018D0004E683243184E194F98420DD0A0420BD09B
:1018E000A84209D0164CA04206D0B04204D0B8425B
:1018F00002D0144CA04204D103242402A243CC6899
:1019000022438024A2434C69224302608A68C26257
:101910000A688262984206D0B04204D0B84202D02F
:10192000084A904201D10969016301214161F0BD7A
:10193000002C0140000400400040014000440140F0
:10194000002000400048014010B5CB06DB0E01210D
:10195000046A99408C430462016A9A40114301620F
:1019600010BD0000F0B5026A520852000262056A1A
:10197000436882697024A24392080C689200144361
:10198000022295438A68164E2A43144DA84207D076
:10199000B04205D0134FB84202D0134FB84206D11F
:1019A0000827BA43CF681743042297433A46A84210
:1019B00007D0B04205D00B4DA84202D00A4DA84234
:1019C00006D103252D02AB434D691D438B692B4383
:1019D00043608461496841630262F0BD002C0140AC
:1019E00000400140004401400048014070B5026AD7
:1019F00010239A430262056A4268836973242402B1
:101A0000A3430C6824021C4320239D438B681B01C5
:101A10002B43124DA84208D11D46CB688026B54302
:101A20001B012B434025AB4308E00D4DA84205D0D8
:101A30000C4DA84202D00C4DA84208D10325AD029E
:101A4000AA434D69AD0015438A6992002A4342605A
:101A5000846149688163036270BD0000002C01400D
:101A600000400140004401400048014070B5026A56
:101A7000FF2301339A430262056A4368C2697024F6
:101A8000A24392080C68920014430122520295432B
:101A90008A6812022A43124DA84208D11546CA6824
:101AA000C614B54312022A430515AA4308E00D4D9A
:101AB000A84205D00C4DA84202D00C4DA84208D136
:101AC00003252D03AB434D692D011D438B691B017C
:101AD0002B434360C4614968C163026270BD00006A
:101AE000002C0140004001400044014000480140FA
:101AF00030B5026A01231B039A430262046A4268FA
:101B0000C36973252D02AB430D682D021D430123CC
:101B10005B039C438B681B0323430C4CA04208D0FF
:101B20000B4CA04205D00B4CA04202D00A4CA04264
:101B300005D10124A403A2434C69A40122434260BD
:101B4000C56149680164036230BD0000002C01409A
:101B500000400140004401400048014010B5818C24
:101B6000C90707D001684A6801235B049A43836A66
:101B70001A434A60818C890707D501684A680123A6
:101B80001B049A43C36A1A434A60818C490707D5EC
:101B900001684A6801239B049A43036B1A434A6015
:101BA000818C090707D501684A680123DB039A4342
:101BB000436B1A434A60818CC90607D50268916855
:101BC00001231B039943836B19439160818C890620
:101BD00007D501688A6801235B039A43C36B1A43E4
:101BE0008A60818C490612D503685A68012109056B
:101BF000046C8A4322435A60026C8A4207D102680D
:101C0000516803235B059943436C19435160818CF0
:101C1000090607D501684A680123DB04806C9A43F2
:101C200002434A6010BD0000F8B500260446C667AE
:101C3000FEF792FD054620680068124F000709D59F
:101C400001212B46002249052046009700F0DAF8D2
:101C500000280DD12068006840070BD501212B46D4
:101C6000002289052046009700F0CCF8002801D01A
:101C70000320F8BD20206067A06760342674002030
:101C8000F8BD0000FFFFFF0170B5044680682169C0
:101C9000E26908436169002511432268084311681D
:101CA0004F4B194001431160216848680322120319
:101CB0009043E26810434860A169206A22680843A3
:101CC00091680B231B02994301439160454B01220C
:101CD00020684549120498420AD1086B8007800F9A
:101CE00023D0012814D0022814D003281CD10DE0E1
:101CF0003E4B984210D1086B03210904084014D0D0
:101D0000801A05D0801A05D090420DD102200CE037
:101D100004200AE0082008E03549884202D035490D
:101D2000884201D1002000E010200123E169DB039B
:101D3000314E994229D1002806D0022807D0042824
:101D40001AD0082845D11DE0FEF778FE16E061683C
:101D50002A4A48088018FEF7CBF980B201461039AC
:101D6000B14236D824490246491C0A400007410FB7
:101D700020681143C1602DE0FEF770FE61684000ED
:101D80004A08E7E761684808E4E7002806D0022827
:101D900007D0042813D008281BD116E0FEF74EFE0A
:101DA0000FE06168164A48088018FEF7A1F980B272
:101DB00001461039B1420CD82168C8600AE0FEF72C
:101DC0004DFE61684A081018EFE761684808C018BE
:101DD000EBE70125002020666066284670BD000004
:101DE000F369FFEF0038014000100240004400405A
:101DF00000480040004C0040EFFF00000024F400C9
:101E000000127A00FFB581B005460F4604466035E2
:101E10000A9E38E0701C36D0FEF79EFC0499401AEA
:101E2000B04221D8002E1FD02068016849072AD56A
:101E3000C069C043000526D401202168C0020862A1
:101E400020680168FF22A132914301602068816807
:101E500049084900816020206067A067E067002092
:101E60002874032005B0F0BD20680168FF22A1326C
:101E70009143016020688168490849008160202001
:101E80006067A067EBE72068C1693846884305D0E2
:101E9000002103988142BDD00020E3E70121F8E74B
:101EA000F8B5040C8BB2264682B25E430D0C104688
:101EB000370C5843360480190021794116466E4389
:101EC000370C36048019794126466E438919F8BDCE
:101ED0008307FF22DB0E9A408907090E99400028EC
:101EE00008DB830809489B001B18186890430843C7
:101EF000186070470007000F0838830804489B00EB
:101F00001B18D86990430843D861704700E400E08B
:101F100000ED00E002E008C8121F08C1002AFAD153
:101F200070477047002001E001C1121F002AFBD159
:101F3000704700008AB0FEF71DFCFFF78AFCFFF730
:101F400031FBFFF7FDFA0024344907943248089426
:101F500008600846FEF7F2FA0794002207A92F4806
:101F60000894FEF7CFFAFFF771FBFFF7D5FBFFF7F9
:101F700013FC2B492B482C4D12C004608460456033
:101F800004610838FFF7BAF8FFF744FC25482749F1
:101F9000403012C004608460C46045600461083849
:101FA000FFF7ACF81F482249803012C004608460FB
:101FB000C460456004610838FFF7A0F8FFF768FBCC
:101FC0000126002536030927FF0631463846FEF76D
:101FD000B7FB00281ED031463846FEF7B1FB01287A
:101FE00000D000202842F0D01C216846FEF7DEF821
:101FF000602000900C480190084802940C22694629
:1020000004947830FFF75BF904480C217830FFF72F
:1020100001FAFEE70125D8E70074004050000020D7
:102020000020004088010020FFFF00000044014024
:10203000004801400000000000000000010203040D
:102040000607080900000000010203046C200008D4
:102050000000002010000000141F00087C20000871
:1020600010000020B8060000241F00080100000036
:0C207000040000000000000000127A00D4
:04000005080000C12E
:00000001FF
